:020000040800F2
:1000000080EB012091020008990200081985000880
:100010009D0200089F020008A102000800000000E5
:10002000000000000000000000000000A302000823
:10003000A5020008000000001D030008C9C4000854
:10004000AB020008AB020008AB020008AB020008DC
:10005000AB020008AB020008AB020008AB020008CC
:10006000AB020008AB020008AB020008AB020008BC
:10007000AB020008AB020008AB020008AB020008AC
:10008000AB020008AB020008AB020008AB0200089C
:10009000AB020008AB020008AB020008BF7C0008FE
:1000A000AB020008AB020008AB020008AB0200087C
:1000B000AB02000889C50008F5C70008AB020008BC
:1000C000AB020008AB020008AB020008AB0200085C
:1000D000AB02000879CB0008AB020008AB020008B5
:1000E000AD7C0008AB020008AB020008AB020008C0
:1000F000AB020008AB020008AB020008AB0200082C
:10010000AB020008AB02000831C90008AB020008CE
:10011000AB020008AB020008AB020008AB0200080B
:10012000AB020008AB020008AB020008AB020008FB
:10013000AB02000839750008AB020008AB020008EA
:10014000AB020008AB020008AB020008AB020008DB
:10015000AB020008AB020008AB020008AB020008CB
:10016000AB020008AB020008AB020008AB020008BB
:10017000AB020008AB020008AB020008AB020008AB
:10018000AB020008AB02000800F002F800F070F8C3
:100190000AA090E8000C82448344AAF10107DA45E2
:1001A00001D100F065F8AFF2090EBAE80F0013F0C4
:1001B000010F18BFFB1A43F001031847947505009F
:1001C000B47505000A444FF0000C10F8013B13F021
:1001D000070408BF10F8014B1D1108BF10F8015BA0
:1001E000641E05D010F8016B641E01F8016BF9D193
:1001F00013F0080F1EBF10F8014BAD1C0C1B09D1EA
:100200006D1E58BF01F801CBFAD505E014F8016B5B
:1002100001F8016B6D1EF9D59142D6D370470000ED
:100220000023002400250026103A28BF78C1FBD8FF
:10023000520728BF30C148BF0B607047642900F0E7
:100240002381782900F05C81732900F0108500205B
:1002500070471FB521F0D2FB00F078FC04000020AD
:10026000002121F0B5FB401C60601FBD10B510BD22
:1002700000F0BAFD1146FFF7ECFF12F065FB00F04D
:10028000D8FD03B4FFF7F2FF03BC0CF03EFF000003
:100290000948804709480047FEE7FEE7FEE7FEE71A
:1002A000FEE7FEE7FEE7FEE7FEE7FEE70448054956
:1002B000034A054B70470000F5C400088901000897
:1002C00080E7012080EB012080E70120EFF3108020
:1002D00072B6704780F310887047264C4FF6FF7552
:1002E00025604FF0000484F30988234C4FF001058A
:1002F0002570224C4FF08055256062B6FEE730B481
:100300001E4C4FF08055256030BC704730B41B4CFC
:100310004FF08055256030BC704700BF72B6EFF3D8
:10032000098050B11EF0100F08BF20ED108A203850
:1003300080E8F00F12490968086000B5114880474D
:100340005DF804EB104811490A7802700C48104916
:100350000A680260106890E8F00F20301EF0100F5D
:1003600008BFB0EC108A80F309884EF0040E62B624
:10037000704700BF22ED00E04601002004ED00E0E0
:100380004C01002035A800083B0100203C01002062
:10039000540100207047000010B500F0D7FB001D8D
:1003A00010BD00BF2D1602000FB4044910B503AAFA
:1003B000029800F061FC10BC5DF814FBF000002016
:1003C0000FB41CB5074B06AA7B44694600900598FC
:1003D00000F023FC0020694600F032FC1CBC5DF8F4
:1003E00014FB00007508000070B5044685690068BC
:1003F000C10601D5302600E02026C00707D070BD19
:10040000D4E9012130469047206A401C20626D1ECD
:10041000F6D570BD70B5044685690078C00707D170
:1004200070BDD4E9012120209047206A401C206241
:100430006D1EF6D570BD70B50C460546012A05D077
:100440002878800600D5EA69002302E0012305E050
:100450005B1C934202D2E05C0028F9D1A869E6183F
:10046000C01AA861286A184428622846FFF7BCFF12
:1004700004E0D5E9012114F8010B9047B442F8D308
:100480002846FFF7C7FF70BD2DE9F041064600245E
:1004900010687529314616A510D0AFF300800028EA
:1004A00002DA404213A507E031688A0701D512A598
:1004B00002E0490704D511A5012401E0AFF3008053
:1004C00000210A2206F1240709E0B0FBF2FCB0FB90
:1004D000F2F302FB1C00303078541846491C002807
:1004E000F3D123462A463046BDE8F04100F036BB42
:1004F000000000002D0000002B0000002000000084
:1005000070B504460D4621461068AFF3008021887F
:10051000090502D50F4A7A4402E00E4A7A440E32A7
:10052000002104F1240305E000F00F060009965DA8
:100530005E54491C0028F7D120780023000704D519
:10054000702D02D009B1022311322046BDE870405F
:1005500000F004BBB66E05002DE9F05F8946044645
:100560004FF0000ADFF824B1FB44C0F820A0204679
:10057000E168884700287DD0252806D0D4E90121EC
:100580009047206A401C2062F1E700255F46204624
:10059000E16888472028064607DB312E05D2B819C6
:1005A00010F8200C08B10543F1E7A80701D525F0A4
:1005B0000405C4F81CA00027C4F818A02A2E09D0EE
:1005C00030460CF09BFD38B304EB8708303EC8F88A
:1005D000186019E059F8041B204604EB870291616A
:1005E000E1688847012F064618D1E069002820DA23
:1005F00025F020051DE0D8F8180000EB800006EB80
:1006000040003038C8F818002046E16888470646A0
:100610000CF074FD0028EED1012F0AD02E2E08D147
:100620002046E16888477F1C0646022F45F02005DA
:10063000C4DBA069002803DA404245F00105A0614F
:10064000E80701D025F01005A6B1A6F14100192850
:1006500002D8203645F400654A46314620462560DA
:100660004D46FFF7EBFD60B1012807D0ED1D25F0E9
:10067000070000E007E000F1080978E705F1040948
:1006800075E730467AE7206ABDE8F09F8C6E05007A
:1006900070B5064600F05EFA0468054630460A2248
:1006A000002100F002F82C6070BD2DE9F047914662
:1006B0000F4680460446002614F8015B2DB1FFF773
:1006C0006BFE0068405DC007F6D12B2D02D02D2DAA
:1006D00018D0641E4A463946204600F0DFFA27B19A
:1006E0003968A14201D1C7F800804FF002047105BA
:1006F0000BD54042002803DD00F02CFA0460A0076F
:10070000BDE8F08746F48066E4E70028F8DA00F0F8
:1007100021FA04606FF00040F2E70000014A00F0A7
:100720000DBB000008030020401ECAB210F8011FD4
:100730008A4202D00029F9D10020704730B5054621
:100740000B462A4613F8014B12F8010B08B1A042E0
:10075000F8D01CB1002802D06D1CF1E7284630BD4E
:1007600040EA010310B59B070FD1042A0DD310C82E
:1007700008C9121F9C42F8D020BA19BA884201D980
:10078000012010BD4FF0FF3010BD1AB1D30703D0C8
:10079000521C07E0002010BD10F8013B11F8014B7E
:1007A0001B1B07D110F8013B11F8014B1B1B01D19A
:1007B000921EF1D1184610BD40EA0103024630B541
:1007C0009B0710D14FF0013400E008C208C91D1B7F
:1007D0009D4315EAC41FF8D013F0FF0102F8011B76
:1007E0000DD01B0AF8E711F8013B002B02F8013B82
:1007F00005D011F8013B002B02F8013BF3D130BDCD
:1008000010B5431C02E010F8011B71B18107FAD149
:100810004FF0013202C88C1A8C4314EAC211F9D08D
:10082000C01A0A0603D0C01E10BDC01A10BD0A04AB
:1008300001D0801E10BD0902FCD0401E10BD40EA50
:10084000010370B59B072ED14FF00136042A2AD33D
:1008500008C810C99D1B9D43121F15EAC61517D065
:10086000D8B2E1B2401A50EA056110D198B2A1B2F3
:10087000401A50EA05410AD123F07F4024F07F411D
:10088000401A50EA052102D1180EA0EB146070BD89
:10089000A342DBD018BA21BA884201D9012070BD29
:1008A0004FF0FF3070BD0AB9002070BD10F8013B59
:1008B00011F8014B63B1A3420AD1521E08D010F8BF
:1008C000013B11F8014B1BB1A34201D1521EEDD1E6
:1008D000181B70BD421E12F8013F002BFBD111F80E
:1008E000013B002B02F8013BF9D17047032A40F28B
:1008F000308010F0030C00F0158011F8013BBCF1C2
:10090000020F624498BF11F801CB00F8013B38BFD9
:1009100011F8013BA2F1040298BF00F801CB38BFE7
:1009200000F8013B11F0030300F02580083AC0F005
:10093000088051F8043B083A51F804CBA0E80810AD
:10094000F5E7121D5CBF51F8043B40F8043BAFF3E0
:100950000080D20724BF11F8013B11F801CB48BF3A
:1009600011F8012B24BF00F8013B00F801CB48BF70
:1009700000F8012B704710B5203AC0F00B80B1E8A9
:100980001850203AA0E81850B1E81850A0E81850C4
:10099000BFF4F5AF5FEA027C24BFB1E81850A0E8CD
:1009A000185044BF18C918C0BDE810405FEA827CE7
:1009B00024BF51F8043B40F8043B08BF7047D207FE
:1009C00028BF31F8023B48BF11F8012B28BF20F89F
:1009D000023B48BF00F8012B70474FF0000204298A
:1009E000C0F0128010F0030C00F01B80CCF1040C5E
:1009F000BCF1020F18BF00F8012BA8BF20F8022B92
:100A0000A1EB0C0100F00DB85FEAC17C24BF00F837
:100A1000012B00F8012B48BF00F8012B70474FF065
:100A2000000200B5134694469646203922BFA0E83E
:100A30000C50A0E80C50B1F12001BFF4F7AF09074A
:100A400028BFA0E80C5048BF0CC05DF804EB89003B
:100A500028BF40F8042B08BF704748BF20F8022B7E
:100A600011F0804F18BF00F8012B704710B50446F5
:100A700010F0030F08BF11F0030F40F015804FF086
:100A8000013E121FC0F20E8051F8043BA3EB0E0C86
:100A90002CEA030C1CEACE1C08BF40F8043BF0D043
:100AA000A1F1040102F10402521E08DB11F8013B1E
:100AB000002B00F8013BF7D11146FFF78EFF2046CF
:100AC00010BD00004FF0013C50F8042B51F8043BDE
:100AD0009A4221D1A2EB0C03934313EACC1317D112
:100AE00050F8042B51F8043B9A4215D1A2EB0C03A9
:100AF000934313EACC130BD150F8042B51F8043B69
:100B00009A4209D1A2EB0C03934313EACC13DBD036
:100B10004FF00000704700BFD01A01BAB1FA81F15E
:100B200001F0180122FA01F0CB40C1F12001DBB243
:100B3000C0B2C01A2CFA01F3D11A914311EAC311C1
:100B4000E6D170477047704770477047004870475C
:100B500040E701200048704720E701202DE9F047D9
:100B60000D4699469246044600F12408016888061D
:100B700004D5E06921F01001216000E00120A842C5
:100B800001DD471B00E00027A1697A1902EB09008B
:100B9000081AA0612078C00602D42046FFF724FC82
:100BA000002608E0D4E901211AF806009047206ADF
:100BB000401C761C20624E45F4DB2078C0060AD526
:100BC0002046FFF711FC06E0D4E9012130209047D0
:100BD000206A401C2062381EA7F10107F4DC07E000
:100BE000D4E9012118F805009047206A401C2062D2
:100BF000281EA5F10105F3DC2046FFF70BFC207849
:100C0000000602D50220BDE8F0870120FBE70000C6
:100C100001694A1C02610878704700B58FB0CDE9C0
:100C200001310021059105497944CDE903101146B0
:100C30006846FFF791FC0FB000BD0000E5FFFFFF25
:100C40000A6802F8010B0A60704710B5436913B1D6
:100C5000AFF3008001E0FFF7EEFB012010BD12783A
:100C600000F124010A7000224A700122EDE71168A8
:100C70004FF0FF32E9E70000074B70B50D467B44AB
:100C8000FFF7CBFF0446284600F08CF810B14FF078
:100C9000FF3070BD204670BDD3E700002DE9F05F46
:100CA000824615468B4600270AF10104B9460078B2
:100CB000302801D09DB113E014F8010B01277828EA
:100CC00003D0582801D045B10AE00DB1102D07D14D
:100CD000002714F8010B102502E0082500E00A2582
:100CE0000026B0460EE005FB080005FB06F10127D3
:100CF0001FFA80F801EB1046B6F5803F00D3B946E5
:100D000014F8010B294600F03FF80028EBDABBF19C
:100D1000000F05D00FB1641E00E05446CBF8004030
:100D2000B9F1000F06D0FFF715FF02210160C81EC0
:100D3000BDE8F09F48EA0640FAE700002DE9F041DF
:100D400015460E46040002D12C6804B90BA42046B7
:100D500000F03CF80444207870B12746314638460C
:100D600000F024F80444207810B1002004F8010BAE
:100D700038462C60BDE8F0810027F9E7000000004C
:100D80000048704720E701203A2800D2303820F090
:100D90002002412A01D3A2F13700884201D34FF04B
:100DA000FF307047007B00F08000704730B503468D
:100DB0001D781DB10A4603E0AC4201D1181A30BDBE
:100DC00012F8014B002CF7D15B1CF1E730B503465C
:100DD0001D783DB10A4612F8014B1CB1AC42FAD164
:100DE0005B1CF5E7181A30BD7546FFF7C9FFAE4624
:100DF00005006946534620F00700854618B020B527
:100E0000FFF754FABDE820404FF000064FF000070E
:100E10004FF000084FF0000B21F00701AC46ACE8A2
:100E2000C009ACE8C009ACE8C009ACE8C0098D460F
:100E300070470446AFF300802046FFF722FA000017
:100E400070B504462D48007808B9042000E006205B
:100E5000064600202A4908552A4908552A490855B6
:100E6000204620F0B3FC002545E02548005DA8B9E8
:100E700004EB4400254901EB800030F9150004EB38
:100E80004401234A02EB810131F91510401A21492E
:100E90000988884202DD0120194908551948005D7A
:100EA00058B904EB4400194901EB800030F91500F2
:100EB0000A2802DA0120134908551248005DC0B91A
:100EC0001148005DA8B904EB4400114901EB800012
:100ED00030F9150004EB44010C4A02EB810131F9B1
:100EE0001510401A0C490988884202DD0120064984
:100EF0000855681CC5B2B542B7DB70BD780000204C
:100F00005A0000205C0000205E000020181C002019
:100F1000E81B002062000020640000202DE9F04161
:100F200004460CB9002100E00221764800880841FF
:100F300000F001050CB9012100E00321714800888F
:100F4000084100F001060CB9082100E009216D48B4
:100F50000088084100F001072046FFF771FF1CB927
:100F600069480078012805D0012C7DD167480078B8
:100F70000128FAD16648005DA84231D06448005D7E
:100F800001281DD16348005D10B901206149085551
:100F90006048005D6049095D884221DB0CB9002191
:100FA00000E0022108460BF0E3F90CB9032100E050
:100FB0000121084601210CF00DF800F05BFA0FE06A
:100FC0000020544908550CB9002100E002210120FD
:100FD00088404C49098881434A48018000F04AFA18
:100FE0004E48005DB04231D04C48005D01281DD113
:100FF0004B48005D10B90120494908554848005D3B
:101000004549095D884221DB0CB9012100E003213B
:1010100008460BF0ADF90CB9022100E000210846AA
:1010200001210BF0D7FF00F025FA0FE000203C492A
:1010300008550CB9012100E0032101208840314905
:10104000098881432F48018000F014FA3548005D7B
:10105000B84254D03348005D012815D13248005DB4
:1010600020B90120304900E01FE008552E48005DFE
:10107000022844DB0CB9082100E0092108460BF0E6
:1010800077F900F0F7F93AE00020274908550CB944
:10109000082100E00921012088401A49098881437C
:1010A0001848018000F0E6F929E0002019490855A8
:1010B0001B4908551C4908550CB9012100E00321C2
:1010C000012088400F49098881430E4801800CB9EE
:1010D000002100E00221012088400A49098881435B
:1010E000084801800CB9082100E00921012088404E
:1010F0000449098881430348018000F0BBF9BDE839
:10110000F0810000500000206000002061000020FD
:101110005A000020670000204E0000205C000020E4
:10112000690000205E0000206B00002021B1826871
:1011300042F00102826003E0826822F001028260D4
:10114000704700000021084A1168084A1140D0E9A0
:1011500000231A4383681A43C3681A431143044A9D
:10116000C2F804137047000004230140E030FCFF84
:10117000002001400146C86C80B270470246002042
:1011800013680B400BB1012000E000207047000005
:1011900030B50246002000235068104C20400D79E5
:1011A0000C6844EA05242043506090680C4C2040B1
:1011B000D1E903542C438D682C434D7944EA45040E
:1011C00020439060D06A20F470000C7D641EE4B26D
:1011D000234340EA0350D06230BD0000FFFEFFFC15
:1011E000FDF7FFC0F0B504460D4600200021092D93
:1011F00011DDE068A5F10A0606EB4607072606FAA8
:1012000007F18843A5F10A0606EB460603FA06F144
:101210000843E0600CE0206905EB4507072606FA65
:1012200007F1884305EB450603FA06F10843206100
:10123000072A0FDA606B561E06EB86071F2606FA92
:1012400007F18843561E06EB860605FA06F10843A9
:10125000606322E00D2A0FDA206BD61F06EB8607AB
:101260001F2606FA07F18843D61F06EB860605FA05
:1012700006F10843206310E0E06AA2F10D0606EBD8
:1012800086071F2606FA07F18843A2F10D0606EB32
:10129000860605FA06F10843E062F0BD816841F078
:1012A000804181607047002101600171417181605E
:1012B000C160016101210175704700000EB5012177
:1012C00011200AF0A3F80320019001208DF80800F6
:1012D00000208DF80A0003208DF8090001208DF808
:1012E0000B0001A9564806F0B0FF0321544807F04F
:1012F00017F84FF48060019000208DF8080003205B
:101300008DF8090001208DF80B0001A94D4806F069
:101310009CFF1820019001A9494806F096FF4FF460
:10132000C050019000208DF8080003208DF80900BE
:1013300001208DF80B0001A9424806F086FF06F057
:10134000C7FC612000F002F9FF2804D0622000F001
:10135000FDF8FF280AD100203B49087048701E2084
:101360003A49088048800BF0B3FD01E00AF084F9A7
:1013700001226946542000F0C2F89DF80000FF28C1
:101380000FD1012032490870324908703248006894
:1013900008B9012000E00020304908700BF07AFD08
:1013A00008E00AF049F92C480068012802D1002021
:1013B0002A490870274800782849097808432849AD
:1013C000086001226946562000F099F89DF8000057
:1013D000FF2802D10BF074FE01E00AF07DFB012032
:1013E00020F062FA002020F05FFA1E480078C0F377
:1013F000400018B900201C49087002E001201A4979
:1014000008700AF0DBF8194800884FF6FF7188422F
:1014100004D13220154908800BF006FD14480088DD
:101420004FF6FF71884204D13220114908800BF039
:10143000FBFC42F2CF0140F2E7300BF0FDFA0EBDAB
:101440000010024000000240400000204200002046
:10145000580000206000002010024242610000207D
:1014600094024042EE00002078000020620000203C
:10147000640000200E480088C0F300100D49086089
:101480000B480088C0F3400009490988C1F3C00136
:1014900008430949C1F884020548008800F00100AA
:1014A00003490988C1F38001084304490860704773
:1014B0005000002080824042008040429002404222
:1014C00010B5552147F6FF7000F0A0F847F6FF7001
:1014D00000F03CF80446552C01D1002010BD5521E8
:1014E00047F6FF7000F092F847F6FF7000F02EF814
:1014F0000446552C01D10020F0E70120EEE770B53D
:1015000006460C46154608E03046721C96B200F0BE
:101510001DF804F8010B681E85B2002DF4D170BDD2
:101520002DE9F04107460C460026002509E0360269
:101530003919491B491E88B200F008F80644681C96
:10154000C5B2A542F3DB3046BDE8F081F8B50446EC
:101550000026002000906A4600211748006808F025
:10156000D9F807F0D5F9A02007F09EF907F028FA7E
:10157000201207F099F907F023FA2546E11704EB4A
:1015800011610912A4EB0121C8B207F08DF907F02F
:1015900017FA07F0BDF9A12007F086F907F010FA55
:1015A000002007F04BF9064607F0DCF90248006816
:1015B00008F0CCF93046F8BD2400002070B505468F
:1015C0000C46164606E02178284600F01FF8681CF5
:1015D00085B2641C3000A6F101018EB2F3D170BD5A
:1015E0002DE9F04105460E461746002409E0E200C9
:1015F00026FA02F2D1B22A1990B200F007F8601C64
:10160000C4B2BC42F3DBBDE8F0810000F8B504468B
:101610000E46002000906A4600211648006808F037
:1016200079F807F075F9A02007F03EF907F0C8F93E
:10163000201207F039F907F0C3F92546E11704EB4A
:1016400011610912A4EB0121C8B207F02DF907F0CE
:10165000B7F9304607F028F907F0B2F907F082F938
:1016600042F210700BF0C0FE0248006808F06EF9FC
:10167000F8BD000024000020062831D2DFE800F089
:10168000030B131A21290121174A11600021174A5F
:10169000C2F8A01225E00021134A11600121134A6B
:1016A000C2F8A0121DE000210F4A11600F4AC2F8D3
:1016B000A01216E001210C4A11600C4AC2F8A012D7
:1016C0000FE001210A4A116000210A4AC2F8A01263
:1016D00007E00021064A1160064AC2F8A01200E0A5
:1016E00000BF00BF70470000A40241420000414219
:1016F000A40240420000404210B58CB000240121F9
:10170000052009F083FE0121080209F09FFE0D204B
:101710000A9003208DF82C0000208DF82F000AA9D4
:101720004F4806F092FD4FF440700A9001208DF86A
:101730002C0000208DF82E0003208DF82D000120B4
:101740008DF82F000AA9464806F07FFD4FF440703F
:101750000A900AA9434806F078FD0121080209F021
:1017600085FE00214FF4807009F080FE0020069075
:10177000099008904FF48030079006A8FFF7E2FC2C
:101780006846FFF790FD002000908DF804008DF86A
:1017900005000290049001208DF81400694632483B
:1017A000FFF7F6FC01213048FFF7C0FC00BF36E030
:1017B000204609F0F1FE04EB44002C4931F82000EA
:1017C00080B24FF6FF7188420BD104EB4401274AE7
:1017D00002EB81000C22002117F097FA20460BF053
:1017E00011FB204609F0C6FE04EB4400204931F805
:1017F000200080B24FF6FF7188420BD104EB440108
:101800001B4A02EB81000C22002117F07EFA2046D1
:101810000BF0E6FA012017490855601CC4B2022CEF
:10182000C6DB0AF069F9144800884FF6FF71884258
:1018300004D1C820104908800BF050FC09F0E0FEEC
:101840000E4800884FF6FF71884204D11E200B49D4
:1018500008800BF005FB0120094908700CB010BD91
:10186000000802400000024000200140D01B002080
:10187000E81B00201B000020180000201E00002094
:1018800022000020012002490860024908607047D8
:10189000840242427000002001200249086002498F
:1018A000486070478002424270000020062831D212
:1018B000DFE800F0030B121A21280021174A1160FB
:1018C0000121174AC2F8A01225E00121134A116034
:1018D000134AC2F8A0121EE00121104A1160002133
:1018E0000F4AC2F8A01216E000210C4A11600C4AFF
:1018F000C2F8A0120FE001210A4A11600A4AC2F898
:10190000A01208E00021074A11600121064AC2F82E
:10191000A01200E000BF00BF70470000A4024142D7
:1019200000004142A40240420000404210B504467B
:10193000204606F029FC10BD2DE9F05F80460F46D9
:1019400016461D460024A146A2463A463146C2A08C
:1019500006F065FC804608F10100002857D000BF62
:101960004EE056F82400BCA1FFF7ACF830B955F8AA
:101970002400FEF78DFEBB4908703FE056F82400B6
:10198000B9A1FFF79FF830B955F82400FEF780FEA3
:10199000B849088032E056F82400B7A1FFF792F862
:1019A00030B955F82400FEF773FEB749087025E0FA
:1019B00056F82400B5A1FFF785F830B955F8240092
:1019C000FEF766FEA749487018E056F82400B2A159
:1019D000FFF778F830B955F82400FEF759FEA5490D
:1019E00048800BE056F82400AEA1FFF76BF828B949
:1019F00055F82400FEF74CFEA3494870601CC4B2A1
:101A0000BC42AEDB0BF064FAAAA0BDE8F09F3A46F8
:101A10003146ACA006F003FC804608F1010020B37B
:101A200000241EE056F82400A6A1FFF74BF840B9A9
:101A300055F824008EA1FFF745F810B90AF078F99F
:101A40000DE056F824009FA1FFF73CF838B955F88F
:101A5000240093A1FFF736F808B90AF07DF9601C5D
:101A6000C4B2BC42DEDB93A0CFE73A46314698A031
:101A700006F0D5FB804608F1010000284BD0002479
:101A800010E056F8240092A1FFF71CF808B9A1460F
:101A900006E056F8240091A1FFF714F800B9A24619
:101AA000601CC4B2BC42ECDB55F829008EA1FFF7E4
:101AB00009F858B955F82A00FEF7EAFD012802D1C5
:101AC00006F04EFB25E006F055FB22E055F8290014
:101AD00086A1FEF7F7FF58B955F82A00FEF7D8FDA2
:101AE000012802D109F072FC13E009F07DFC10E03E
:101AF00055F829007FA1FEF7E5FF50B955F82A00F7
:101B0000FEF7C6FD012802D109F040FC01E009F012
:101B10004BFC68A079E73A46314678A006F07FFB97
:101B2000804608F1010028B300241FE056F8240085
:101B300072A1FEF7C7FF40B955F82400FEF7A8FDD3
:101B40001FFA80FB58461AF09FF856F824006FA140
:101B5000FEF7B8FF40B955F82400FEF799FD1FFACB
:101B600080FB58461AF086F8601CC4B2BC42DDDB2C
:101B700050A04AE73A46314668A006F050FB80463E
:101B800008F1010028B300241FE056F8240063A1E7
:101B9000FEF798FF40B955F82400FEF779FD1FFACB
:101BA00080FB58461AF0B4F856F8240060A1FEF7FE
:101BB00089FF40B955F82400FEF76AFD1FFA80FB43
:101BC00058461AF06BF8601CC4B2BC42DDDB39A089
:101BD0001BE73A4631465DA006F021FB804608F13E
:101BE0000100B0B1002410E056F8240057A1FEF720
:101BF00069FF40B955F82400FEF74AFD00F0FF0BDD
:101C000058461FF07FFE601CC4B2BC42ECDB52A001
:101C1000FBE63A46314654A006F001FB804608F147
:101C20000100B0B1002410E056F824004EA1FEF7E8
:101C300049FF40B955F82400FEF72AFD00F0FF0BDC
:101C400058461FF0BBFD601CC4B2BC42ECDB42A096
:101C5000DBE618A0D9E600006669656C645F6E7506
:101C60006D5F300040000020616C6D5F646C795FD7
:101C7000300000004200002073656E73697469765D
:101C80006974795F300000004E0000206669656C61
:101C9000645F6E756D5F3100616C6D5F646C795F60
:101CA0003100000073656E73697469766974795FD9
:101CB000310000002F636F6E74726F6C2E73687446
:101CC0006D6C0000616C61726D5F726573657400AC
:101CD0004354525F54595045000000004354525F32
:101CE00056414C554500000066630000625F626625
:101CF00000000000615F6266000000005448524529
:101D000053484F4C445F5550000000005448524522
:101D100053484F4C445F444F574E000054454E5378
:101D2000494F4E5F4D41585F52414E4745000000BC
:101D3000424153455F4155544F5F43414C494252E4
:101D40004154455F54494D45000000007A65726F6B
:101D50005F726573657400002F73746174652E7310
:101D600068746D6C00000000626173655F7265737A
:101D7000657400002DE9FE4381460E4615461F4658
:101D800000243246294623A006F049FA814609F18B
:101D9000010000283AD000BF33E055F824001DA10F
:101DA000FEF790FE98B957F82480B8F1000F0ED0D6
:101DB0000A231AA24146684619F0D6FF0098A0F5FA
:101DC000FA6017490870019848700298887055F8B1
:101DD000240014A1FEF776FE88B957F82480B8F1E4
:101DE000000F0CD00A2311A24146684619F0BCFF2F
:101DF0000B490098C8700198087102984871601CDE
:101E0000C4B2B442C9DB064809F0F6F908A0BDE83F
:101E1000FE83000044415445000000002D000000F6
:101E2000A001002054494D45000000003A00000088
:101E30002F706172616D65746572732E7368746D55
:101E40006C0000002DE9F04707460D4616469846FF
:101E500000242A4631461EA006F0E1F90746781C08
:101E600098B100BF0FE056F8240019A1FEF72AFE32
:101E700038B958F8240018A1FEF724FE08B91AF062
:101E800093FB601CC4B2AC42EDDB2A46314613A082
:101E900006F0C5F90746781CB8B1002413E056F8DF
:101EA00024000EA1FEF70EFE58B958F82400FEF7E4
:101EB000EFFB00F0FF09484619F0FAFE0AA0BDE862
:101EC000F087601CC4B2AC42E9DB0CA0F7E700006D
:101ED00044454641554C540031000000636F6E6626
:101EE0006967636F646500002F61646D696E736577
:101EF0007474696E672E7368746D6C002F636F6EF7
:101F000074726F6C2E7368746D6C000010B59EB0A7
:101F1000142288A119A8FEF72EFD8BA30FCB15ACB8
:101F20000FC48DA30FCB11AC0FC48FA30FCB0DAC7F
:101F30000FC400200C900B900A9009900890079015
:101F400006900590049003900290019007F016F817
:101F5000012319AA0021084605F0B6F8012315AAA5
:101F60000021022005F0B0F8012311AA002104206D
:101F700005F0AAF801230DAA0021062005F0A4F817
:101F80007D48B0F900000A2190FBF1F422467BA1C4
:101F90000CA8FEF715FA7848B0F900000A2190FB6A
:101FA000F1F201FB1204224676A10BA8FEF708FA13
:101FB0007148B0F902000A2190FBF1F422466FA1AA
:101FC0000AA8FEF7FDF96C48B0F902000A2190FB5F
:101FD000F1F201FB120422466AA109A8FEF7F0F90A
:101FE0006548B0F904000A2190FBF1F4224663A190
:101FF00008A8FEF7E5F96048B0F904000A2190FB53
:10200000F1F201FB120422465EA107A8FEF7D8F9FF
:102010005948B0F906000A2190FBF1F4224657A175
:1020200006A8FEF7CDF95448B0F906000A2190FB46
:10203000F1F201FB1204224652A105A8FEF7C0F9F5
:102040004D48B0F908000A2190FBF1F422464BA15B
:1020500004A8FEF7B5F94848B0F908000A2190FB3A
:10206000F1F201FB1204224646A103A8FEF7A8F9EB
:102070004148B0F90A000A2190FBF1F422463FA141
:1020800002A8FEF79DF93C48B0F90A000A2190FB2E
:10209000F1F201FB120422463AA101A8FEF790F9E1
:1020A00001230CAA1821022004F0C4FF01230BAA6B
:1020B0003021022004F0BEFF01230AAA5821022089
:1020C00004F0B8FF012309AA7021022004F0B2FF36
:1020D000012308AA1821042004F0ACFF012307AA59
:1020E0003021042004F0A6FF012306AA5821042071
:1020F00004F0A0FF012305AA7021042004F09AFF38
:10210000012304AA1821062004F094FF012303AA46
:102110003021062004F08EFF012302AA5821062058
:1021200004F088FF012301AA7021062004F082FF39
:102130001EB010BD4120B7C0C7F8C0ADC1A6A3A84E
:102140004B67A3A9000000004C313A20202E20202C
:102150004C323A20202E20004C333A20202E2020D2
:102160004C343A20202E20004C353A20202E2020BE
:102170004C363A20202E2000181C002025303264D6
:1021800000000000253031640000000010B59EB052
:1021900014228AA119A8FEF7EEFB8DA30FCB15AC74
:1021A0000FC48FA3D3E90020D3E9021312AC0BC4F0
:1021B00011928FA30FCB0DAC0FC400200C900B908D
:1021C0000A9009900890079006900590049003905B
:1021D0000290019006F0D2FE012319AA00210846C0
:1021E00004F072FF012315AA0021022004F06CFF05
:1021F000012311AA0021042004F066FF01230DAA87
:102200000021062004F060FF7D48B0F90C000A218F
:1022100090FBF1F422467BA10CA8FEF7D1F8784898
:10222000B0F90C000A2190FBF1F201FB12042246E6
:1022300076A10BA8FEF7C4F87148B0F90E000A2188
:1022400090FBF1F422466FA10AA8FEF7B9F86C489A
:10225000B0F90E000A2190FBF1F201FB12042246B4
:102260006AA109A8FEF7ACF86548B0F910000A2188
:1022700090FBF1F4224663A108A8FEF7A1F860489C
:10228000B0F910000A2190FBF1F201FB1204224682
:102290005EA107A8FEF794F85948B0F912000A2188
:1022A00090FBF1F4224657A106A8FEF789F854489E
:1022B000B0F912000A2190FBF1F201FB1204224650
:1022C00052A105A8FEF77CF84D48B0F914000A2188
:1022D00090FBF1F422464BA104A8FEF771F84848A0
:1022E000B0F914000A2190FBF1F201FB120422461E
:1022F00046A103A8FEF764F84148B0F916000A2188
:1023000090FBF1F422463FA102A8FEF759F83C48A1
:10231000B0F916000A2190FBF1F201FB12042246EB
:102320003AA101A8FEF74CF801230CAA18210220BB
:1023300004F080FE01230BAA3021022004F07AFE73
:1023400001230AAA5821022004F074FE012309AADD
:102350007021022004F06EFE012308AA1821042037
:1023600004F068FE012307AA3021042004F062FE75
:10237000012306AA5821042004F05CFE012305AACB
:102380007021042004F056FE012304AA182106201F
:1023900004F050FE012303AA3021062004F04AFE77
:1023A000012302AA5821062004F044FE012301AAB9
:1023B0007021062004F03EFE1EB010BD4220B7C0C2
:1023C000C7F8C0ADC1A6A3A84B67A3A90000000031
:1023D0004C313A20202E20204C323A20202E200052
:1023E0004C333A20202E20204C343A20202E20003E
:1023F0004C353A20202E20204C363A20202E20002A
:10240000181C0020253032640000000025303164A3
:102410000000000000B58DB010A30FCBCDE90B2359
:10242000CDE909012022114901A8FEF7A4FA0020F4
:1024300006F0A4FD012309AA1021002004F0A2FD4A
:10244000012301AA1021022004F09CFD012305AA0A
:102450001021042004F096FD0DB000BDA1B6D0A35C
:10246000D7BCC9E8D6C3A1B7000000002C420208BF
:1024700010B59AB060A30FCB16AC0FC40020159016
:10248000149013901290119040225F4901A8FEF71A
:1024900072FA002006F072FD012316AA1021002016
:1024A00004F012FE59480078032859DD5748007897
:1024B000C01E01A901EB001201231021022004F02B
:1024C00003FE52480078801E01A901EB001201238F
:1024D0001021042004F0F8FD4C480078401E01A9AA
:1024E00001EB001201231021062004F0EDFD484805
:1024F000028848A114A8FDF763FF484800880A2114
:1025000090FBF1F4224646A113A8FDF759FF43487A
:1025100040880A2190FBF1F4224641A112A8FDF760
:102520004FFF414802783EA111A8FDF749FF012362
:1025300014AA5821022004F07DFD012313AA48218A
:10254000042004F077FD012312AA6021042004F086
:1025500071FD012311AA4821062004F06BFD49E01A
:10256000012301AA1021022004F0AEFD012305AAD7
:102570001021042004F0A8FD012309AA102106203F
:1025800004F0A2FD2948027825A115A8FDF718FF3F
:102590001F4802881FA114A8FDF712FF1F480088DA
:1025A0000A2190FBF1F422461DA113A8FDF708FFB4
:1025B0001A4840880A2190FBF1F4224618A112A87B
:1025C000FDF7FEFE012315AA5021022004F032FD82
:1025D000012314AA5821042004F02CFD012313AA7E
:1025E0004821062004F026FD012312AA60210620BE
:1025F00004F020FD1AB010BDA1B64120B7C0C7F845
:10260000B2CECAFDA1B700004C43020885000020ED
:102610004200002025303364000000004600002006
:1026200025303264000000004E00002040000020F1
:1026300010B59AB060A30FCB16AC0FC40020159054
:10264000149013901290119040225F4901A8FEF758
:1026500092F9002006F092FC012316AA1021002016
:1026600004F032FD59480078032859DD57480078B6
:10267000C01E01A901EB001201231021022004F069
:1026800023FD52480078801E01A901EB00120123AE
:102690001021042004F018FD4C480078401E01A9C8
:1026A00001EB001201231021062004F00DFD484823
:1026B000428848A114A8FDF783FE484880880A2173
:1026C00090FBF1F4224646A113A8FDF779FE43489A
:1026D000C0880A2190FBF1F4224641A112A8FDF71F
:1026E0006FFE414842783EA111A8FDF769FE012323
:1026F00014AA5821022004F09DFC012313AA4821AA
:10270000042004F097FC012312AA6021042004F0A5
:1027100091FC012311AA4821062004F08BFC49E01A
:10272000012301AA1021022004F0CEFC012305AAF6
:102730001021042004F0C8FC012309AA102106205E
:1027400004F0C2FC2948427825A115A8FDF738FEFF
:102750001F4842881FA114A8FDF732FE1F48808839
:102760000A2190FBF1F422461DA113A8FDF728FED3
:102770001A48C0880A2190FBF1F4224618A112A839
:10278000FDF71EFE012315AA5021022004F052FC81
:10279000012314AA5821042004F04CFC012313AA9D
:1027A0004821062004F046FC012312AA60210620DD
:1027B00004F040FC1AB010BDA1B64220B7C0C7F863
:1027C000B2CECAFDA1B700008C43020885000020EC
:1027D0004200002025303364000000004600002045
:1027E00025303264000000004E0000204000002030
:1027F00000B58BB00FA207CA08AB07C3202210494F
:102800006846FEF7B8F8002006F0B8FB012308AAD6
:102810001021002004F0B6FB01236A46102102209B
:1028200004F052FC012304AA1021042004F04CFC03
:102830000BB000BDA1B6BBF9D7BCD6B5A1B700009F
:102840006C44020800B589B01AA30FCBCDE9072369
:10285000CDE905011BA0006804901BA0006803904F
:102860001AA103C9CDE90101002006F087FB01236D
:1028700005AA1021002004F085FB012304AA1021E1
:10288000022004F0D7FB012301AA1821022004F042
:1028900079FB1048006858B9012303AA10210420CD
:1028A00004F0C8FB012301AA1821042004F06AFBEC
:1028B00009B000BDA1B6B7C0C7F8B2CECAFDA1B776
:1028C000000000004100000042000000B7C0C7F84F
:1028D000000000001002424210B590B09AA30FCB46
:1028E0000CAC0FC49CA30FCB08AC0FC49EA30FCBA2
:1028F00004AC0FC40020039002900190009006F0F9
:102900003DFB01230CAA1021002004F03BFB012316
:1029100008AA1021022004F0D7FB012304AA1021E9
:10292000042004F0D1FB94480078002844D0934858
:1029300000880A2190FBF1F4224691A103A8FDF73B
:102940003FFD8E4800880A2190FBF1F201FB120442
:1029500022468DA102A8FDF733FD8D4800880A218B
:1029600090FBF1F4224686A101A8FDF729FD8848D5
:1029700000880A2190FBF1F201FB1204224682A199
:102980006846FDF71DFD012303AA5021022004F033
:1029900051FB012302AA6821022004F04BFB012312
:1029A00001AA5021042004F045FB01236A46682156
:1029B000042004F03FFBC4E076480078012802D0F0
:1029C00002287CD15CE0744800880A2190FBF1F475
:1029D00022466BA103A8FDF7F3FC6F4800880A218B
:1029E00090FBF1F201FB1204224667A102A8FDF759
:1029F000E7FC674800880A2190FBF1F4224660A1B9
:102A000001A8FDF7DDFC624800880A2190FBF1F285
:102A100001FB120422465CA16846FDF7D1FC5F4829
:102A200090F90000012802D002281AD10CE00023FE
:102A300003AA5021022004F0FDFA012302AA682112
:102A4000022004F0F7FA0DE0012303AA502102202E
:102A500004F0F0FA002302AA6821022004F0EAFA46
:102A600000E000BF00BF012301AA5021042004F0B0
:102A7000E1FA01236A466821042004F0DBFA5FE0F2
:102A80003E4800880A2190FBF1F422463CA103A8AD
:102A9000FDF796FC394800880A2190FBF1F201FB12
:102AA0001204224638A102A8FDF78AFC3C4800889F
:102AB0000A2190FBF1F4224631A101A800E03EE09A
:102AC000FDF77EFC364800880A2190FBF1F201FBFD
:102AD000120422462CA16846FDF772FC012303AACA
:102AE0005021022004F0A6FA012302AA6821022044
:102AF00004F0A0FA294890F90000012802D0022829
:102B00001AD10CE0002301AA5021042004F092FA0B
:102B100001236A466821042004F08CFA0DE00123A9
:102B200001AA5021042004F085FA00236A46682196
:102B3000042004F07FFA00E000BF00BF00E000BF07
:102B400000BF10B010BD0000A1B6B8E6BEAFE3D024
:102B5000D6B5A1B700000000C9CFC6ABD2C63A2097
:102B600020202E204B670000CFC2C6ABD2C63A2031
:102B700020202E204B6700008400002062000020EF
:102B80002530326400000000253031640000000070
:102B900064000020850000209A00002086000020AC
:102BA0009C00002000B58FB0BBA30FCBCDE90D2357
:102BB000CDE90B01BCA000680A90BCA00068099098
:102BC000BBA000680890BBA000680790BAA000688E
:102BD0000690BAA103C9CDE90401BAA207CA01ABA4
:102BE00007C3002006F0CAF901230BAA1021002018
:102BF00004F0C8F901230AAA1021022004F01AFAED
:102C0000012304AA1821022004F0BCF9012308AA18
:102C10003821022004F00EFAAD48006888B901237B
:102C200009AA1021042004F005FA012304AA18219E
:102C3000042004F0A7F9012308AA3821042004F095
:102C4000F9F9012301AA1021062004F09BF90123C0
:102C500008AA5021062004F0EDF99E48007878B3C8
:102C60009D480078012806D1012307AA40210220AF
:102C700004F088F905E0012306AA4021022004F0AF
:102C800081F99348006880B994480078012806D1FA
:102C9000012307AA4021042004F074F905E0012370
:102CA00006AA4021042004F06DF98D48007801281F
:102CB00007D1012307AA6021062004F063F9E9E0A7
:102CC00006E0012306AA6021062004F05BF9E1E09A
:102CD00084480078012804D0022853D0032876D1F4
:102CE0009FE081480078012811D1804800780128B0
:102CF00006D1002307AA4021022004F043F91BE07B
:102D0000002306AA4021022004F03CF914E0764892
:102D10000078022810D175480078012806D10123D7
:102D200007AA4021022004F02DF905E0012306AA9C
:102D30004021022004F026F96548006880B9674800
:102D40000078012806D1012307AA4021042004F0BD
:102D500019F905E0012306AA4021042004F012F924
:102D60005F480078012806D1012307AA60210620C8
:102D700004F008F905E0012306AA6021062004F00A
:102D800001F986E058480078012811D158480078A8
:102D9000012806D1002307AA4021042004F0F2F8FC
:102DA0001CE0002306AA4021042004F0EBF815E003
:102DB0004D480078022811D14D480078012807D1EC
:102DC000012307AA4021042004F0DCF806E05FE0BC
:102DD000012306AA4021042004F0D4F83E480078DC
:102DE000012806D1012307AA4021022004F0CAF8D5
:102DF00005E0012306AA4021022004F0C3F8384868
:102E00000078012806D1012307AA6021062004F0DA
:102E1000B9F805E0012306AA6021062004F0B2F803
:102E200037E02D480078012806D1012307AA402168
:102E3000022004F0A7F805E0012306AA40210220A1
:102E400004F0A0F82248006880B9244800780128DE
:102E500006D1012307AA4021042004F093F805E0DD
:102E6000012306AA4021042004F08CF821480078B0
:102E7000012806D1002307AA6021062004F082F869
:102E800005E0002306AA6021062004F07BF800E09C
:102E900000BF00BF0FB000BDA1B6B2BCB7C0B2CE7C
:102EA000CAFDA1B700000000410000004200000080
:102EB0003A000000BFAA0000B9D80000B7C0C7F8A8
:102EC00000000000B7C0B2F0B8E6BEAF00000000DE
:102ED00010024242840000206000002061000020B7
:102EE0005800002085000020860000207900002086
:102EF0007A0000205900002000B597B01422EDA1FF
:102F000012A8FDF738FDF0A000680990EFA0006856
:102F10000890EFA103C9CDE906011422EEA101A892
:102F2000FDF729FD002006F029F8012312AA00214F
:102F3000084604F027F8012309AA1021022004F012
:102F400079F8012306AA1821022004F01BF8E748AB
:102F5000006858B9012308AA1021042004F06AF877
:102F6000012306AA1821042004F00CF8012301AA69
:102F70000021062004F006F8DD48007800286ED015
:102F8000DC4890F90000092833D2DFE800F0050A98
:102F90000F14191E23282D00D7A10EA8FDF70CFC35
:102FA00028E0D7A10EA8FDF707FC23E0D7A10EA8C3
:102FB000FDF702FC1EE0D8A10EA8FDF7FDFB19E00D
:102FC000D8A10EA8FDF7F8FB14E0D9A10EA8FDF7D3
:102FD000F3FB0FE0D9A10EA8FDF7EEFB0AE0DAA1A2
:102FE0000EA8FDF7E9FB05E0DAA10EA8FDF7E4FB6A
:102FF00000E000BF00BF01230EAA4021022003F021
:10300000C1FFBA480068002841D1BA4890F90100D0
:10301000092834D2DFE800F0050A0F14191E24290C
:103020002E00B5A10AA8FDF7C7FB29E0B4A10AA8A4
:10303000FDF7C2FB24E0B5A10AA8FDF7BDFB1FE028
:10304000B5A10AA8FDF7B8FB1AE0B6A10AA8FDF7DA
:10305000B3FB15E0B6A10AA8FDF7AEFB10E017E040
:10306000B6A10AA8FDF7A8FB0AE0B7A10AA8FDF7D8
:10307000A3FB05E0B7A10AA8FDF79EFB00E000BF97
:1030800000BF01230AAA4021042003F07BFF0FE1C7
:10309000B3480078012802D0022870D183E0954817
:1030A00090F90000092833D2DFE800F0050A0F1478
:1030B000191E23282D0090A10EA8FDF77DFB28E006
:1030C0008FA10EA8FDF778FB23E090A10EA8FDF7D5
:1030D00073FB1EE090A10EA8FDF76EFB19E091A115
:1030E0000EA8FDF769FB14E091A10EA8FDF764FBA3
:1030F0000FE092A10EA8FDF75FFB0AE092A10EA8D7
:10310000FDF75AFB05E093A10EA8FDF755FB00E083
:1031100000BF00BF00230EAA4021022003F032FFAF
:10312000744890F90100092834D2DFE800F0050A5C
:103130000F14191E23292E006FA10AA8FDF73CFBCE
:1031400029E06FA10AA8FDF737FB24E06FA10AA8C8
:10315000FDF732FB1FE070A10AA8FDF72DFB1AE076
:1031600070A10AA8FDF728FB15E071A10AA8FDF7D8
:1031700023FB10E071A10AA8FDF71EFB0BE095E010
:1031800071A10AA8FDF718FB05E072A10AA8FDF7D6
:1031900013FB00E000BF00BF01230AAA4021042066
:1031A00003F0F0FE83E0534890F90000092833D281
:1031B000DFE800F0050A0F14191E23282D004EA188
:1031C0000EA8FDF7F9FA28E04DA10EA8FDF7F4FAD4
:1031D00023E04EA10EA8FDF7EFFA1EE04EA10EA8C7
:1031E000FDF7EAFA19E04FA10EA8FDF7E5FA14E0A1
:1031F0004FA10EA8FDF7E0FA0FE050A10EA8FDF7D1
:10320000DBFA0AE050A10EA8FDF7D6FA05E051A1BD
:103210000EA8FDF7D1FA00E000BF00BF01230EAAFF
:103220004021022003F0AEFE324890F90100092847
:1032300033D2DFE800F0050A0F14191E23282D00F1
:103240002DA10AA8FDF7B8FA28E02DA10AA8FDF7DC
:10325000B3FA23E02DA10AA8FDF7AEFA1EE02EA1D5
:103260000AA8FDF7A9FA19E02EA10AA8FDF7A4FA09
:1032700014E02FA10AA8FDF79FFA0FE02FA10AA8DA
:10328000FDF79AFA0AE030A10AA8FDF795FA05E0E1
:1032900030A10AA8FDF790FA00E000BF00BF0023AC
:1032A0000AAA4021042003F06DFE00E000BF00BF29
:1032B00017B000BDA1B6BCE6C8DDCDE2B2BFC9E81B
:1032C000B1B8A1B7000000004100000042000000BA
:1032D000C7F8A3BA00000000A3A8B3A3B1D5D0CD0E
:1032E000BFAAB9D8C1BFA3A9000000001002424282
:1032F000840000207D000020CEDEC9E8B1B80000C7
:10330000D6F7B6AFBAECCDE200000000B1BBB6AF65
:10331000BAECCDE200000000CBABBCF8CCBDB2E211
:1033200000000000BBB7BEB3CCBDB2E2000000009D
:10333000C3C5B4C5CCBDB2E200000000BDF4BCB151
:10334000B0B4C5A500000000CBAEBDFECCBDB2E25E
:1033500000000000C6E4CBFCC9E8B1B800000000E2
:103360008500002000B589B017A30FCBCDE9072356
:10337000CDE9050118A003C8CDE9030118A103C9CF
:10338000CDE90101002005F0F9FD012305AA102176
:10339000002003F0F7FD012303AA1021022003F00F
:1033A00093FE1148006828B9012301AA10210420C6
:1033B00003F08AFE0D480E49098801800D480E4928
:1033C0000968016009B000BDA1B6B7C0C7F8B2CEA8
:1033D000CAFDA1B70000000041B7C0C7F800000057
:1033E00042B7C0C7F8000000100242428900002026
:1033F000400000208C0000204200002010B59EB04C
:10340000142288A119A8FDF7B6FA8BA30FCB15AC2F
:103410000FC48DA30FCB11AC0FC48FA30FCB0DAC7A
:103420000FC400200C900B900A9009900890079010
:1034300006900590049003900290019005F09EFD87
:10344000012319AA0021084603F03EFE012315AA14
:103450000021022003F038FE012311AA00210420DC
:1034600003F032FE01230DAA0021062003F02CFEFA
:103470007D48B0F900000A2190FBF1F422467BA1BF
:103480000CA8FCF79DFF7B48B0F900000A2190FBD7
:10349000F1F201FB1204224677A10BA8FCF790FF82
:1034A0007148B0F902000A2190FBF1F422466FA1A5
:1034B0000AA8FCF785FF6F48B0F902000A2190FBCB
:1034C000F1F201FB120422466BA109A8FCF778FF78
:1034D0006548B0F904000A2190FBF1F4224663A18B
:1034E00008A8FCF76DFF6348B0F904000A2190FBBF
:1034F000F1F201FB120422465FA107A8FCF760FF6E
:103500005948B0F906000A2190FBF1F4224657A170
:1035100006A8FCF755FF5448B0F906000A2190FBB5
:10352000F1F201FB1204224653A105A8FCF748FF63
:103530004D48B0F908000A2190FBF1F422464BA156
:1035400004A8FCF73DFF4848B0F908000A2190FBA9
:10355000F1F201FB1204224647A103A8FCF730FF59
:103560004148B0F90A000A2190FBF1F422463FA13C
:1035700002A8FCF725FF3C48B0F90A000A2190FB9D
:10358000F1F201FB120422463BA101A8FCF718FF4F
:1035900001230CAA1821022003F04CFD01230BAAE1
:1035A0003021022003F046FD01230AAA58210220FF
:1035B00003F040FD012309AA7021022003F03AFD27
:1035C000012308AA1821042003F034FD012307AACF
:1035D0003021042003F02EFD012306AA58210420E7
:1035E00003F028FD012305AA7021042003F022FD29
:1035F000012304AA1821062003F01CFD012303AABD
:103600003021062003F016FD012302AA58210620CE
:1036100003F010FD012301AA7021062003F00AFD2A
:103620001EB010BDA1B64120B7C0C7F8BBF9D7BCCA
:10363000D6B5A1B7000000004C313A20202E202042
:103640004C323A20202E20004C333A20202E2020CD
:103650004C343A20202E20004C353A20202E2020B9
:103660004C363A20202E2000E81B00202530326402
:1036700000000000D01B0020253031640000000055
:1036800010B59EB0142288A119A8FDF774F98BA378
:103690000FCB15AC0FC48DA30FCB11AC0FC48FA3F0
:1036A0000FCB0DAC0FC400200C900B900A9009902A
:1036B0000890079006900590049003900290019066
:1036C00005F05CFC012319AA0021084603F0FCFC6C
:1036D000012315AA0021022003F0F6FC012311AA00
:1036E0000021042003F0F0FC01230DAA0021062094
:1036F00003F0EAFC7D48B0F900000A2190FBF1F4E8
:1037000022467BA10CA8FCF75BFE7848B0F90000CC
:103710000A2190FBF1F201FB1204224676A10BA8CC
:10372000FCF74EFE7148B0F902000A2190FBF1F45B
:1037300022466FA10AA8FCF743FE6C48B0F90200CC
:103740000A2190FBF1F201FB120422466AA109A8AA
:10375000FCF736FE6548B0F904000A2190FBF1F44D
:10376000224663A108A8FCF72BFE6048B0F90400CC
:103770000A2190FBF1F201FB120422465EA107A888
:10378000FCF71EFE5948B0F906000A2190FBF1F43F
:10379000224657A106A8FCF713FE5448B0F90600CC
:1037A0000A2190FBF1F201FB1204224652A105A866
:1037B000FCF706FE4D48B0F908000A2190FBF1F431
:1037C00022464BA104A8FCF7FBFD4848B0F90800CD
:1037D0000A2190FBF1F201FB1204224646A103A844
:1037E000FCF7EEFD4148B0F90A000A2190FBF1F424
:1037F00022463FA102A8FCF7E3FD3C48B0F90A00CD
:103800000A2190FBF1F201FB120422463AA101A821
:10381000FCF7D6FD01230CAA1821022003F00AFCB4
:1038200001230BAA3021022003F004FC01230AAA81
:103830005821022003F0FEFB012309AA7021022077
:1038400003F0F8FB012308AA1821042003F0F2FB7F
:10385000012307AA3021042003F0ECFB012306AA70
:103860005821042003F0E6FB012305AA702104205F
:1038700003F0E0FB012304AA1821062003F0DAFB81
:10388000012303AA3021062003F0D4FB012302AA5E
:103890005821062003F0CEFB012301AA7021062047
:1038A00003F0C8FB1EB010BDA1B64120B7C0C7F8D9
:1038B000C1E3B5E3D6B5A1B7000000004C313A2012
:1038C000202E20204C323A20202E20004C333A204B
:1038D000202E20204C343A20202E20004C353A2037
:1038E000202E20204C363A20202E2000D01B0020F5
:1038F00025303264000000002530316400000000F3
:1039000010B5BCB01422F9A137A8FDF734F8FCA01B
:1039100000683690FBA000683590FBA000683490EA
:10392000FAA292E80B00D26830AC0BC43392FBA32E
:10393000D3E90012D3E90203CDE92E03CDE92C121D
:10394000FAA2D2E90030D2E90212CDE92830CDE95D
:103950002A12FAA2D2E900109268CDE92602259136
:10396000F9A103C9CDE92301F9A103C9CDE92101D9
:10397000F9A2D2E901311068D268CDE91E31209256
:103980001D90F9A30FCB19AC0FC4FBA30FCB15AC43
:103990000FC4FDA3D3E901211868DB68CDE9131337
:1039A000CDE91102FCA3D3E90020D3E902130EAC48
:1039B0000BC40D92FCA3D3E90021D3E90203CDE9A6
:1039C0000B03CDE90921FCA3D3E90012D3E90203DB
:1039D000CDE90703CDE90512FBA3D3E90020D3E924
:1039E000021302AC0BC40192FBA000680090FB48DC
:1039F0000078C0F3800010B1F948008801E0F94870
:103A00000088F9490880002005F0B8FA012337AA98
:103A10000021084603F0B6FAF4480088F249098804
:103A200088421CD00020F2490870092410E0EE48BA
:103A30000088204100F0010040B1EE49EC4A1278C4
:103A40008C54EB480078401CE9490870601E44B271
:103A5000002CECDAE4480088E449088069E2E44894
:103A60000078401E40B2E4490870E148007804281C
:103A700076DA084690F9004058E2DE48005D0A28F0
:103A80006FD2DFE800F0051C334A616FF36EF2F18C
:103A9000D94991F90010091B1DF80100012336AA2C
:103AA000002103F0C7FAD44991F90010091B1DF851
:103AB0000100012330AA102103F064FA33E2CE4959
:103AC00091F90010091B1DF80100012336AA0021FD
:103AD00003F0B0FAC84991F90010091B1DF8010064
:103AE00001232CAA102103F04DFA1CE2C24991F9DE
:103AF0000010091B1DF80100012335AA002103F065
:103B000099FABD4991F90010091B1DF80100012324
:103B100030AA102103F036FA05E2B74991F90010F6
:103B2000091B1DF80100012335AA002103F082FAC8
:103B3000B14991F90010091B1DF8010001232CAABD
:103B4000102103F01FFAEEE1AB4991F90010091BB7
:103B50001DF80100012325AA002103F013FAE2E178
:103B6000E8E1DFE1A44991F90010091B1DF801000B
:103B7000012336AA002103F05DFA9F4991F9001054
:103B8000091B1DF80100012334AA102103F0FAF9E2
:103B90009A4890F90000092876D2DFE800F0051174
:103BA0001D2935414D596900934991F90010091BB0
:103BB0001DF80100012323AA202103F085FA64E007
:103BC0008D4991F90010091B1DF8010001231DAA60
:103BD000202103F0D7F958E0874991F90010091B1B
:103BE0001DF80100012319AA202103F0CBF94CE0B4
:103BF000814991F90010091B1DF80100012315AA44
:103C0000202103F0BFF940E07B4991F90010091B26
:103C10001DF80100012311AA202103F0B3F934E0BB
:103C2000754991F90010091B1DF8010001230DAA27
:103C3000202103F0A7F928E06F4991F90010091B32
:103C40001DF80100012309AA202103F09BF91CE0C3
:103C5000694991F90010091B1DF80100012305AA0B
:103C6000202103F08FF910E045E12DE10FE00BE09A
:103C7000614991F90010091B1DF80100012301AAF7
:103C8000202103F07FF900E000BF00BF4BE15A495B
:103C900091F90010091B1DF80100012335AA00212C
:103CA00003F0C8F9544991F90010091B1DF80100EF
:103CB000012334AA102103F065F9504890F901005E
:103CC000092812D2DFE800F0059CA8B4C0CCD8E4E3
:103CD000F100494991F90010091B1DF80100012369
:103CE00021AA202103F0F0F9ECE0EAE0A1B6B8E661
:103CF000BEAFD0C5CFA2C1D0B1EDA1B700000000CA
:103D00004100000042000000C7F80000B7C0C7F83B
:103D1000C8EBC7D6B8E6BEAF00000000B7C0C7F812
:103D2000B6CFCFDFB8E6BEAF00000000B7C0C7F81F
:103D3000CBC9B3DAB8E6BEAF00000000B7C0B2F03E
:103D4000B8E6BEAF00000000BFAAB9D8C1BF3100BD
:103D5000BFAAB9D8C1BF3200D6F7B6AFBAECCDE230
:103D6000B8E6BEAF00000000B1BBB6AFBAECCDE222
:103D7000B8E6BEAF00000000CBABBCF8CCBDB2E2F1
:103D8000B8E6BEAF00000000BBB7BEB3CCBDB2E228
:103D9000B8E6BEAF00000000C3C5B4C5CCBDB2E2FA
:103DA000B8E6BEAF00000000BDF4BCB1B0B4C5A51C
:103DB000B8E6BEAF00000000CBAEBDFECCBDB2E2A7
:103DC000B8E6BEAF00000000C6E4CBFCC9E8B1B85D
:103DD000B8E6BEAF0000000002040600EE000020BE
:103DE0005000002052000020540000205600002007
:103DF000BF000020831D0020BE0000207D000020A9
:103E0000FE4991F90010091B1DF8010001231DAAAC
:103E1000202103F0B7F855E0F84991F90010091B8B
:103E20001DF80100012319AA202103F0ABF849E095
:103E3000F24991F90010091B1DF80100012315AA90
:103E4000202103F09FF83DE0EC4991F90010091B97
:103E50001DF80100012311AA202103F093F831E09D
:103E6000E64991F90010091B1DF8010001230DAA74
:103E7000202103F087F825E0E04991F90010091BA3
:103E80001DF80100012309AA202103F07BF819E0A5
:103E9000DA4991F90010091B1DF80100012305AA58
:103EA000202103F06FF80DE0FFE7D44991F90010ED
:103EB000091B1DF80100012301AA202103F062F86B
:103EC00000E000BF00BF2EE0CC4991F90010091BB3
:103ED0001DF80100012336AA002103F0ABF8C74901
:103EE00091F90010091B1DF80100012328AA1021D7
:103EF00003F048F817E0C14991F90010091B1DF8BB
:103F00000100012335AA002103F094F8BB4991F97F
:103F10000010091B1DF80100012328AA102103F03D
:103F200031F800E000BF00BF601E44B2002CBFF6B5
:103F3000A4AD54E2B1480078B1490978401A44B2BE
:103F400042E2B048005D0A287ED2DFE800F0052496
:103F500043628393EF7DEEEDA84991F90010091BB0
:103F6000A74A92F90020891A1DF80100012336AAF8
:103F7000002103F05FF8A14991F90010091BA04A44
:103F800092F90020891A1DF80100012330AA10219E
:103F900002F0F8FF15E2994991F90010091B984ABF
:103FA00092F90020891A1DF80100012336AA002188
:103FB00003F040F8914991F90010091B904A92F9D9
:103FC0000020891A1DF8010001232CAA102102F0FB
:103FD000D9FFF6E1894991F90010091B884A92F945
:103FE0000020891A1DF80100012335AA002103F0E1
:103FF00021F8824991F90010091B814A92F90020A9
:10400000891A1DF80100012330AA102102F0BAFF1D
:10401000D7E17A4991F90010091B794A92F90020F9
:10402000891A1DF80100012335AA002103F002F8C6
:10403000724991F90010091B714A92F90020891AFE
:104040001DF80100012300E0BAE12CAA102102F0C2
:1040500099FFB6E1694991F90010091B684A92F984
:104060000020891A1DF80100012325AA002102F071
:1040700089FFA6E1614991F90010091B604A92F994
:104080000020891A1DF80100012336AA002102F040
:10409000D1FF5A4991F90010091B594A92F90020A1
:1040A000891A1DF80100012334AA102102F06AFFC9
:1040B000554890F90000092879D2DFE800F0890519
:1040C00015253848586879004C4991F90010091BAA
:1040D0004B4A92F90020891A1DF8010001231DAAFC
:1040E000202102F04FFF74E0444991F90010091BB0
:1040F000434A92F90020891A1DF80100012319AAE8
:10410000202102F03FFF64E03C4991F90010091BB7
:104110003B4A92F90020891A1DF80100012315AAD3
:10412000202102F02FFF54E02BE10BE153E0334953
:1041300091F90010091B324A92F90020891A1DF8E2
:104140000100012311AA202102F01CFF41E02B49AC
:1041500091F90010091B2A4A92F90020891A1DF8CA
:10416000010001230DAA202102F00CFF31E02349B8
:1041700091F90010091B224A92F90020891A1DF8B2
:104180000100012309AA202102F0FCFE21E01B49C5
:1041900091F90010091B1A4A92F90020891A1DF89A
:1041A0000100012305AA202102F0ECFE11E00FE03E
:1041B000124991F90010091B114A92F90020891A3D
:1041C0001DF80100012301AA202102F0DBFE00E01E
:1041D00000BF00BFF5E0094991F90010091B084A2A
:1041E00092F90020891A1DF80100012335AA002147
:1041F00002F020FF014991F9001007E0BE00002005
:10420000C0000020831D00207D000020091B754A8E
:1042100092F90020891A1DF80100012334AA102107
:1042200002F0B0FE704890F90100092876D2DFE86C
:1042300000F0860515253545556576006B4991F9E1
:104240000010091B674A92F90020891A1DF8010025
:1042500001231DAA202102F095FE71E0634991F926
:104260000010091B5F4A92F90020891A1DF801000D
:10427000012319AA202102F085FE61E05B4991F932
:104280000010091B574A92F90020891A1DF80100F5
:10429000012315AA202102F075FE51E0534991F93E
:1042A0000010091B4F4A92F90020891A1DF80100DD
:1042B000012311AA202102F065FE41E04B4991F94A
:1042C0000010091B474A92F90020891A1DF80100C5
:1042D00001230DAA202102F055FE31E0434991F956
:1042E0000010091B3F4A92F90020891A1DF80100AD
:1042F000012309AA202102F045FE21E03B4991F962
:104300000010091B374A92F90020891A1DF8010094
:10431000012305AA202102F035FE11E00FE0334908
:1043200091F90010091B2F4A92F90020891A1DF8F3
:104330000100012301AA202102F024FE00E000BFB9
:1043400000BF3EE0294991F90010091B254A92F966
:104350000020891A1DF80100012336AA002102F06D
:1043600069FE224991F90010091B1E4A92F90020AA
:10437000891A1DF80100012328AA102102F002FE6B
:104380001FE01A4991F90010091B164A92F9002002
:10439000891A1DF80100012335AA002102F04AFE06
:1043A000124991F90010091B0E4A92F90020891A4E
:1043B0001DF80100012328AA102102F0E3FD00E00E
:1043C00000BF00BF601E44B2084890F900000549D4
:1043D00091F90010401AC01EA042FFF6B2AD3CB0E9
:1043E00010BD0000C00000207D000020BE000020A5
:1043F00010B59EB014228FA119A8FCF7BCFA92A2A6
:10440000D2E901311068D268CDE9163118921590C1
:1044100091A3D3E90020D3E9021312AC0BC411928B
:1044200091A3D3E90012D3E90203CDE90F03CDE94B
:104430000D1200200C900B900A90099008900790A4
:1044400006900590049003900290019004F096FD70
:10445000012319AA0021084602F036FE012315AAFD
:104460000021022002F030FE012311AA00210420C5
:1044700002F02AFE01230DAA0021062002F024FEEC
:104480007D48B0F90C000A2190FBF1F422467BA193
:104490000CA8FBF795FF7848B0F900000A2190FBC3
:1044A000F1F201FB1204224676A10BA8FBF788FF6C
:1044B0007148B0F90E000A2190FBF1F422466FA179
:1044C0000AA8FBF77DFF6C48B0F902000A2190FBB7
:1044D000F1F201FB120422466AA109A8FBF770FF62
:1044E0006548B0F910000A2190FBF1F4224663A15F
:1044F00008A8FBF765FF6048B0F904000A2190FBAB
:10450000F1F201FB120422465EA107A8FBF758FF57
:104510005948B0F912000A2190FBF1F4224657A144
:1045200006A8FBF74DFF5448B0F906000A2190FB9E
:10453000F1F201FB1204224652A105A8FBF740FF4D
:104540004D48B0F914000A2190FBF1F422464BA12A
:1045500004A8FBF735FF4848B0F908000A2190FB92
:10456000F1F201FB1204224646A103A8FBF728FF43
:104570004148B0F916000A2190FBF1F422463FA110
:1045800002A8FBF71DFF3C48B0F916000A2190FB7A
:10459000F1F201FB120422463AA101A8FBF710FF39
:1045A00001230CAA1821022002F044FD01230BAACA
:1045B0003021022002F03EFD01230AAA58210220E8
:1045C00002F038FD012309AA7021022002F032FD19
:1045D000012308AA1821042002F02CFD012307AAB8
:1045E0003021042002F026FD012306AA58210420D0
:1045F00002F020FD012305AA7021042002F01AFD1B
:10460000012304AA1821062002F014FD012303AAA5
:104610003021062002F00EFD012302AA58210620B7
:1046200002F008FD012301AA7021062002F002FD1C
:104630001EB010BDA1B64220B7C0C7F8BBF9D7BCA9
:10464000D6B5A1B7000000004C313A20202E202022
:104650004C323A20202E20004C333A20202E2020AD
:104660004C343A20202E20004C353A20202E202099
:104670004C363A20202E2000E81B002025303264E2
:1046800000000000253031640000000010B59EB02D
:1046900014228FA119A8FCF76EF992A2D2E9013178
:1046A0001068D268CDE916311892159091A3D3E91C
:1046B0000020D3E9021312AC0BC4119291A3D3E9E9
:1046C0000012D3E90203CDE90F03CDE90D1200205A
:1046D0000C900B900A900990089007900690059016
:1046E000049003900290019004F048FC012319AA61
:1046F0000021084602F0E8FC012315AA002102204F
:1047000002F0E2FC012311AA0021042002F0DCFCEB
:1047100001230DAA0021062002F0D6FC7D48B0F945
:104720000C000A2190FBF1F422467BA10CA8FBF7B8
:1047300047FE7848B0F900000A2190FBF1F201FB36
:104740001204224676A10BA8FBF73AFE7148B0F995
:104750000E000A2190FBF1F422466FA10AA8FBF794
:104760002FFE6C48B0F902000A2190FBF1F201FB28
:10477000120422466AA109A8FBF722FE6548B0F997
:1047800010000A2190FBF1F4224663A108A8FBF770
:1047900017FE6048B0F904000A2190FBF1F201FB1A
:1047A000120422465EA107A8FBF70AFE5948B0F999
:1047B00012000A2190FBF1F4224657A106A8FBF74C
:1047C000FFFD5448B0F906000A2190FBF1F201FB0D
:1047D0001204224652A105A8FBF7F2FD4D48B0F99C
:1047E00014000A2190FBF1F422464BA104A8FBF728
:1047F000E7FD4848B0F908000A2190FBF1F201FBFF
:104800001204224646A103A8FBF7DAFD4148B0F99D
:1048100016000A2190FBF1F422463FA102A8FBF703
:10482000CFFD3C48B0F916000A2190FBF1F201FBE4
:10483000120422463AA101A8FBF7C2FD01230CAAEB
:104840001821022002F0F6FB01230BAA30210220DE
:1048500002F0F0FB01230AAA5821022002F0EAFB31
:10486000012309AA7021022002F0E4FB012308AA17
:104870001821042002F0DEFB012307AA30210420C6
:1048800002F0D8FB012306AA5821042002F0D2FB33
:10489000012305AA7021042002F0CCFB012304AA05
:1048A0001821062002F0C6FB012303AA30210620AE
:1048B00002F0C0FB012302AA5821062002F0BAFB35
:1048C000012301AA7021062002F0B4FB1EB010BD26
:1048D000A1B64220B7C0C7F8C1E3B5E3D6B5A1B7CA
:1048E000000000004C313A20202E20204C323A208B
:1048F000202E20004C333A20202E20204C343A2009
:10490000202E20004C353A20202E20204C363A20F4
:10491000202E2000D01B0020253032640000000033
:10492000253031640000000000B589B0142218A1C0
:1049300004A8FCF720F81BA0006803901AA00068E8
:1049400002901AA000680190002004F017FB0123D8
:1049500004AA0021084602F015FB012303AA102136
:10496000022002F067FB012301AA2021022002F0AD
:1049700009FB012302AA1021042002F05BFB0123A2
:1049800001AA2021042002F0FDFA09B000BD0000B8
:10499000A1B6C7E5B3FDB6CFCFDFB8E6BEAFA1B7CE
:1049A000000000004100000042000000C7F80000C5
:1049B00000B589B0142218A104A8FBF7DCFF1BA0E6
:1049C000006803901AA0006802901AA00068019085
:1049D000002004F0D3FA012304AA0021084602F0C3
:1049E000D1FA012303AA1021022002F023FB0123A4
:1049F00001AA2021022002F0C5FA012302AA1021F7
:104A0000042002F017FB012301AA2021042002F058
:104A1000B9FA09B000BD0000A1B6C7E5B3FDC8EB07
:104A2000C7D6B8E6BEAFA1B7000000004100000045
:104A300042000000C7F8000000B58DB010A30FCBF6
:104A4000CDE90B23CDE909012022114901A8FBF78B
:104A500092FF002004F092FA012309AA10210020FD
:104A600002F090FA012301AA1021022002F02CFB8F
:104A7000012305AA1021042002F026FB0DB000BD81
:104A8000A1B6BBF9D7BCD0A3D7BCA1B7000000002A
:104A9000CC4202081FB507A30FCB8DE80F00002002
:104AA00004F06CFA01236A461021032002F06AFA2E
:104AB0001FBD0000D5FDD4DAB3F5CABCBBAFA3A1BE
:104AC000000000001FB50AA30FCB8DE80F000020E7
:104AD00004F054FA01236A461021184602F052FAF3
:104AE0000023074A2821042002F0A4FA1FBD000079
:104AF000C7EBCAE4C8EBC3DCC2EBA3BA00000000FA
:104B0000AD00002000B587B014220DA102A8FBF76C
:104B100032FF10A000680190002004F02FFA01235A
:104B200002AA0021084602F02DFA012301AA102151
:104B3000002002F07FFA08F033F907B000BD000052
:104B4000A1B62020C7F8B6CFCFDFB8E6BEAFA1B779
:104B5000000000004100000000B587B014220DA144
:104B600002A8FBF708FF10A000680190002004F0E5
:104B700005FA012302AA0021084602F003FA0123E4
:104B800001AA1021002002F055FA08F009F907B037
:104B900000BD0000A1B62020C7F8C8EBC7D6B8E614
:104BA000BEAFA1B7000000004100000000B591B009
:104BB00013A30FCBCDE90F23CDE90D01302214490A
:104BC00001A8FBF7D8FE002004F0D8F901230DAAB4
:104BD0001021002002F0D6F9012301AA10210220A1
:104BE00002F0D0F9012305AA1021042002F0CAF92D
:104BF000012309AA1021062002F0C4F911B000BD5A
:104C0000A1B6B8E6BEAFBCC7C2BCA1B700000000E9
:104C1000FC43020810B590B03BA1D1E901030A683A
:104C2000C968CDE90E31CDE90C203BA3D3E90102DF
:104C30001968DB6809AC0DC408913BA3D3E90020D7
:104C4000D3E9021305AC0BC4049200200390029038
:104C50000190009004F092F901230CAA1021002089
:104C600002F090F9012308AA1021022002F02CFA88
:104C7000012304AA1021042002F026FA2E480088FD
:104C80000A2190FBF1F422462CA103A8FBF798FB24
:104C9000294800880A2190FBF1F201FB1204224608
:104CA00028A102A8FBF78CFB284800880A2190FB6A
:104CB000F1F4224621A101A8FBF782FB23480088DA
:104CC0000A2190FBF1F201FB120422461DA1684665
:104CD000FBF776FB012303AA5021022002F0AAF978
:104CE000012302AA6821022002F0A4F9012301AAEB
:104CF0005021042002F09EF901236A466821042015
:104D000002F098F910B010BDA1B6B8E6BEAFE3D07E
:104D1000D6B5A1B700000000C9CFC6ABD2C63A20B5
:104D200020202E204B670000CFC2C6ABD2C63A204F
:104D300020202E204B6700006200002025303264C6
:104D400000000000253031640000000064000020F5
:104D500000B587B014220DA102A8FBF70CFE10A02D
:104D600000680190002004F009F9012302AA002143
:104D7000084602F007F9012301AA1021002002F0E1
:104D800059F908F00DF807B000BD0000A1B62020C9
:104D9000C7F8B6CFCFDFB8E6BEAFA1B700000000BE
:104DA0004200000000B587B014220DA102A8FBF755
:104DB000E2FD10A000680190002004F0DFF801235C
:104DC00002AA0021084602F0DDF8012301AA102101
:104DD000002002F02FF907F0E3FF07B000BD00004C
:104DE000A1B62020C7F8C8EBC7D6B8E6BEAFA1B7BA
:104DF000000000004200000000B589B0142213A199
:104E000004A8FBF7B8FD16A103C9CDE902010020F3
:104E1000019004F0B3F8012304AA0021084602F02F
:104E2000B1F8012302AA5021042002F0ABF80E4889
:104E300002880EA101A8FBF7C3FA012301AA1821D9
:104E4000042002F0F7F809B000BD0000A1B6BBF9DC
:104E5000D7BCD7D4D0A3CAB1BCE4A1B7000000002E
:104E6000B7D6D6D3000000001E00002025303564E0
:104E70000000000000B595B048A30FCBCDE9132387
:104E8000CDE9110149A00068109049A000680F9079
:104E900048A000680E9048A000680D9047A00068E8
:104EA0000C90302246496846FBF765FD002004F06F
:104EB00065F8012311AA1021002002F063F80123F4
:104EC0006A461821022002F05DF83E48006828B9C1
:104ED000012304AA1821042002F054F8012308AA8F
:104EE0001021062002F04EF8012310AA1021022002
:104EF00002F0A0F801230EAA3821022002F09AF84D
:104F00003048006858B901230FAA1021042002F08C
:104F100091F801230EAA3821042002F08BF8012316
:104F20000EAA5021062002F085F8274800780128B3
:104F300006D101230DAA4021022002F023F805E04A
:104F400001230CAA4021022002F01CF81D48006831
:104F500080B91E480078012806D101230DAA4021FE
:104F6000042002F00FF805E001230CAA40210420E0
:104F700002F008F816480078012806D101230DAA8E
:104F80006021062001F0FEFF05E001230CAA60214C
:104F9000062001F0F7FF15B000BD0000A1B6B2BCBD
:104FA000B7C0B2CECAFDA1B70000000041000000AA
:104FB000420000003A000000BFAA0000B9D800007B
:104FC000CC43020810024242600000206100002031
:104FD0005800002000B58BB00FA207CA08AB07C36A
:104FE000202210496846FBF7C6FC002003F0C6FFEC
:104FF000012308AA1021002001F0C4FF01236A4602
:105000001021022001F0BEFF012304AA1021042078
:1050100001F0B8FF0BB000BDA1B6D0A3D7BCD6B588
:10502000A1B700002C44020800B587B01AA30FCB2B
:10503000CDE90523CDE903011BA0006802901BA068
:10504000006801901AA000680090002003F096FF0D
:10505000012303AA1021002001F094FF012302AADA
:105060001021022001F0E6FF01236A4620210220E0
:1050700001F088FF0F48006858B9012301AA1021E8
:10508000042001F0D7FF01236A462021042001F00B
:1050900079FF07B000BD0000A1B6B6CFCFDFB8E6FC
:1050A000BEAFA1B7000000004100000042000000B8
:1050B000C7F800001002424200B58FB014222FA1A1
:1050C0000AA8FBF758FC32A00068099031A00068DC
:1050D000089031A103C9CDE9060131A0D0E9001241
:1050E0008068CDE90312059030A103C9CDE9010123
:1050F000002003F043FF01230AAA0021084601F023
:1051000041FF2C480078032818DD012308AA10214C
:10511000022001F08FFF012306AA3021022001F0B6
:1051200031FF012303AA1021042001F02BFF0123EA
:1051300001AA1021062001F025FF1DE0012309AA84
:105140001021022001F076FF012306AA302102205F
:1051500001F018FF012308AA1021042001F06AFFC2
:10516000012306AA3021042001F00CFF012303AA29
:105170001021062001F006FF0FB000BDA1B6B2E974
:10518000D1AFCDF8C2E7B2CECAFDA1B70000000092
:105190004D41430049500000B5D8D6B7000000008B
:1051A000D7D3CDF8D1DAC2EB00000000CDF8B9D8E2
:1051B000000000008500002000B591B014225CA121
:1051C0000CA8FBF7D8FB5FA103C9CDE90A010020B9
:1051D00009905EA103C9CDE90701002006901422C1
:1051E0005CA101A8FBF7C7FB002003F0C7FE012369
:1051F0000CAA0021084601F0C5FE01230AAA1021CD
:10520000022001F061FF012307AA1021042001F010
:105210005BFF012301AA0021062001F0B3FE5248E2
:1052200090F90000092833D2DFE800F0050A0F14D6
:10523000191E23282D004DA109A8FBF7BDFA28E06F
:105240004CA109A8FBF7B8FA23E04DA109A8FBF788
:10525000B3FA1EE04DA109A8FBF7AEFA19E04EA182
:1052600009A8FBF7A9FA14E04EA109A8FBF7A4FAD4
:105270000FE04FA109A8FBF79FFA0AE04FA109A888
:10528000FBF79AFA05E050A109A8FBF795FA00E0B0
:1052900000BF00BF012309AA4021022001F072FED5
:1052A0004C480068002840D12F4890F90100092897
:1052B00033D2DFE800F0050A0F14191E23282D0051
:1052C0002AA106A8FBF778FA28E02AA106A8FBF78E
:1052D00073FA23E02AA106A8FBF76EFA1EE02BA1C1
:1052E00006A8FBF769FA19E02BA106A8FBF764FAF8
:1052F00014E02CA106A8FBF75FFA0FE02CA106A88A
:10530000FBF75AFA0AE02DA106A8FBF755FA05E0CB
:105310002DA106A8FBF750FA00E000BF00BF012353
:1053200006AA4021042001F02DFE11B000BD0000AE
:10533000A1B6BCE6C8DDCDE2B2BFC9E8B1B8A1B73D
:105340000000000041B7C0C7F83A000042B7C0C72C
:10535000F83A0000A3A8B3A3B1D5D0CDBFAAB9D85D
:10536000C1BFA3A9000000007D000020CEDEC9E877
:10537000B1B80000D6F7B6AFBAECCDE2000000003D
:10538000B1BBB6AFBAECCDE200000000CBABBCF8CD
:10539000CCBDB2E200000000BBB7BEB3CCBDB2E2F0
:1053A00000000000C3C5B4C5CCBDB2E200000000DF
:1053B000BDF4BCB1B0B4C5A500000000CBAEBDFECD
:1053C000CCBDB2E200000000C6E4CBFCC9E8B1B835
:1053D00000000000100242421FB508A30FCB8DE869
:1053E0000F00002003F0CAFD01236A4610210020AF
:1053F00001F0C8FD07F0D4FC1FBD0000A1B6B7C086
:10540000B2F0B8E6BEAFA1B70000000010B58CB096
:10541000142215A107A8FBF7AEFA142217A102A8BF
:10542000FBF7A9FA0020019003F0A8FD012307AAC9
:105430000021084601F0A6FD012302AA0021042054
:1054400001F0F8FD124800880A2190FBF1F4224691
:1054500010A101A8FAF7B4FF012301AA2821042012
:1054600001F0E8FD0CB010BDA1B6C2FAC1BFB3CCCB
:10547000C0ADC1A6D6B5A1B70000000020202020F5
:1054800020202020204B472020202020200000002A
:1054900018000020253033640000000000B587B0FC
:1054A00011A207CA04AB07C3124890E80E00C068F7
:1054B0008DE80E00039010220F496846FBF716FA9C
:1054C00000208DF80F0003F059FD012304AA2021CC
:1054D000002001F057FD01236A460021042001F05D
:1054E000A9FD07B000BD0000A1B6CDF8B9D8A1B79D
:1054F000000000000C450208731D002000B589B0B3
:1055000018A090E80E00C068CDE906230591089028
:1055100018A000680490184BD3E901211868DB68D3
:10552000CDE90213CDE90002102214496846FBF7C9
:10553000DDF900208DF80F0003F020FD012305AAFE
:105540001021002001F01EFD012304AA20210020CB
:1055500001F070FD01236A460021042001F06AFD7C
:1055600009B000BDA1B620202020B5D8D6B7A1B77C
:105570000000000049500000EC440208531D0020C8
:1055800000B58BB01FA30FCBCDE90923CDE90701EF
:1055900020A000680690204A07CA03AB07C31E4A32
:1055A0000C3207CA8DE8070003F016FE08221B49DB
:1055B00003A8FBF75BFA0822184909316846FBF794
:1055C00055FA00208DF814008DF8080003F0D6FC81
:1055D000012307AA1021002001F0D4FC012306AA10
:1055E0002021002001F026FD012303AA2021032011
:1055F00001F020FD01236A462021052001F01AFD5B
:105600000BB000BDA1B620202020B5D8D6B7A1B7D9
:10561000000000004D414300D4440208411D002019
:1056200000B587B01AA30FCBCDE90523CDE903015F
:105630001BA0006802901BA0006801901AA00068DF
:105640000090002003F09AFC012303AA10210020FF
:1056500001F098FC012302AA1021022001F0EAFCCB
:1056600001236A462021022001F08CFC0F480068CB
:1056700058B9012301AA1021042001F0DBFC012309
:105680006A462021042001F07DFC07B000BD000027
:10569000A1B6C8EBC7D6B8E6BEAFA1B70000000000
:1056A0004100000042000000C7F800001002424222
:1056B00000B589B014A0D0E901320168C068CDE915
:1056C000063205910890144BD3E90012D3E9020386
:1056D000CDE90303CDE901121022104901A8FBF71F
:1056E00005F900208DF8130003F048FC012305AAFA
:1056F0001021002001F046FC012301AA0021042012
:1057000001F098FC09B000BDA1B6D7D3CDF8D1DA2D
:10571000C2EBA1B700000000FC440208631D00209A
:1057200000B589B011A0D0E901320168C068CDE9A7
:10573000063205910890114BD3E90012D3E9020318
:10574000CDE90303CDE90112002003F017FC01238A
:1057500005AA1021002001F015FC012301AA102147
:10576000022001F00FFC09B000BD0000A1B6CFB5CA
:10577000CDB3B2CECAFDA1B7000000003C43020881
:1057800000B58BB00FA207CA08AB07C3202210498F
:105790006846FBF7F0F8002003F0F0FB012308AAAD
:1057A0001021002001F0EEFB01236A4610210220A7
:1057B00001F08AFC012304AA1021042001F084FCDA
:1057C0000BB000BDA1B6C1E3B5E3D6B5A1B70000EB
:1057D0004C44020800B5A7B025A207CA24AB07C3F2
:1057E000902226496846FBF7C6F8002003F0C6FB66
:1057F000012324AA2021002001F0C4FB20480078C6
:10580000032821DD1E480078C01E694601EB001206
:1058100001231021022001F0B5FB19480078801EF9
:10582000694601EB001201231021042001F0AAFBBC
:1058300013480078401E694601EB00120123102135
:10584000062001F09FFB11E001236A46102102208F
:1058500001F098FB012304AA1021042001F092FB1F
:10586000012308AA1021062001F08CFB27B000BDFF
:10587000A1B6B2E9D1AFA1B7000000004C410208C7
:105880008500002000B589B011A0D0E9013201687F
:10589000C068CDE906320591089011A3D3E9001242
:1058A000D3E90203CDE90303CDE90112002003F09F
:1058B00065FB012305AA1021022001F063FB0123EF
:1058C00001AA1021042001F05DFB09B000BD000019
:1058D000CEB4D4DAD3D0D0A7B7B6CEA7000000009C
:1058E000C7EBB5F7D5FBC0ADC1A6D6B5000000002B
:1058F00000B58FB012A207CA0CAB07C33022134900
:105900006846FBF738F8002003F038FB01230CAAA7
:105910002021002001F036FB01236A4610210220DD
:1059200001F030FB012304AA1021042001F02AFB1E
:10593000012308AA1021062001F024FB0FB000BDAE
:10594000A1B6B2CBB5A5A1B7000000008C400208FB
:1059500000B587B00DA207CA04AB07C30EA090E83C
:105960000E00C0688DE80E000390002003F006FBD7
:10597000012304AA2021022001F004FB01236A462E
:105980001021042001F0FEFA07B000BDC3DCC2EB19
:10599000B4EDCEF300000000C7EBD6D8D0C2CAE405
:1059A000C8EBA3A10000000000B599B0142223A108
:1059B00014A8FAF7E0FF142225A10FA8FAF7DBFFDD
:1059C000142228A10AA8FAF7D6FF142105A8FBF78C
:1059D00026F8142228A16846FAF7CDFF2B4905A81E
:1059E000FAF7EAFE00208DF8240003F0C7FA2848F1
:1059F000006808B114A800E00FA8024601230021A6
:105A0000084601F017FB01230AAA0021022001F039
:105A1000B9FA012305AA0021042001F00BFB0123A0
:105A20006A460021062001F0ADFA0123194A5021EF
:105A3000062001F0FFFA19B000BD00002020202050
:105A400058432D31303057442020202000000000E2
:105A50002020202058432D31303057532020202043
:105A6000000000002020D5C5C1A6CEA7C0B8D6F73B
:105A7000BBFA202000000000C9E8B1B8CEC2B6C809
:105A8000A3BA20202020A1E600000000081D00206D
:105A9000100242422800002000B593B07AA30FCB39
:105AA000CDE91123CDE90F0100200E900D900C904F
:105AB000302279496846FAF75EFF002003F05EFA6B
:105AC00001230FAA1021002001F0FEFA734800788C
:105AD000032821DD71480078C01E694601EB0012E1
